:020000040800F2
:10000000601100203D3200085D3100085F310008BA
:10001000613100086331000865310008000000000C
:100020000000000000000000000000006731000830
:1000300069310008000000006B3100086D310008D4
:100040006D320008713200087532000879320008FC
:100050007D320008813200088532000889320008AC
:100060008D3200089132000895320008993200085C
:100070009D320008A1320008A5320008A93200080C
:10008000AD320008B1320008B5320008B9320008BC
:10009000BD320008C1320008C5320008C93200086C
:1000A000CD320008D1320008D5320008D93200081C
:1000B000DD320008E1320008E5320008E9320008CC
:1000C000ED320008F1320008F5320008F93200087C
:1000D000FD320008753100080133000805330008BF
:1000E000093300080D3300081133000815330008E8
:1000F000193300081D330008213300082533000898
:10010000293300082D330008313300083533000847
:10011000393300083D3300084133000845330008F7
:10012000493300084D3300085133000855330008A7
:100130002DE9F0439FB000BF65A6269CDFF8E88A52
:100140008DF83B40029100240B944FF0FF3704469A
:1001500091461D460AE019F8011B0298A0470028A5
:10016000029000F0A1800B98401C0B9099F80000C1
:1001700050B12528EFD10021002205910692079168
:10018000089209910A9203E00B98A5E041F0010161
:1001900019F8010F2028F9D023280CD02B2804D0DF
:1001A0002D2805D0302809D080E041F00201EFE78A
:1001B00041F00401ECE741F00801E9E741F01001EA
:1001C000E6E70D920AE00D98404505DA00EB800065
:1001D00002EB4002303A0D9209F1010999F8002032
:1001E000A2F130000A28EED399F800002E2818BF9B
:1001F0000C9726D119F8010F2A2808D12868286001
:1002000009F1010950F8042B28600C9219E02D28FF
:100210000CBF09F10109002000220C920BE040B94B
:100220000C9A424505DA02EB820203EB4203303BB3
:100230000C9309F1010999F80030A3F130020A2A60
:10024000EDD3ADF83810304699F8001000F0A0FE5C
:1002500008B119F8010B8DF83A009DF83A006828AA
:1002600005D199F8000068280CD1622106E06C28BD
:1002700004BF99F800006C2804D171218DF83A1060
:1002800009F1010910A804902A4619F8013B6946B2
:10029000204600F061F838B910AA6946204600F0FF
:1002A00091F900287FF562AF384615E02A2888D1F9
:1002B0002A682A6052F8040B2A6000280D9003D5A2
:1002C00040420D9041F0040109F101098CE7000062
:1002D000686A6C747A4C00001FB0BDE8F083622835
:1002E00020D0682811D06A2803D06C2827D0712824
:1002F00025D10868C01D20F007000860D0E9002360
:1003000008300860194610467047002A0A680A60DB
:10031000106803D0121D0A6000B217E0121D0A60B7
:1003200080B217E0002A0A680A60106803D0121D24
:100330000A6040B20AE0121D0A60C0B20AE0002A58
:100340000A680A60106803D0121D0A60C11770475E
:10035000121D0A600021704770B51C460D46B4F1AD
:1003600025002E69114600F01B811C386AD0001F41
:10037000022867D9133843D0093863D0801E16D0BD
:10038000401E1ED0401E02285CD9001F19D0401FFD
:1003900000F08380401E33D0401E00F0CD80C01E90
:1003A00000F0DC80801E2BD0C01E29D0FEE06869E2
:1003B000421C6A610A680A6052F8043B0A603354BE
:1003C000FEE095F83A000122FFF789FFC5E9000138
:1003D0000023994204DA6869411C69612D220DE00D
:1003E000288F810704D56869411C69612B2205E0CB
:1003F000C00722D56869411C6961202232541CE083
:1004000095F83A000022FFF76AFFC5E9000195F868
:100410003800010711D5D5E900230020834208BF29
:1004200082420AD044F02000782806D16869302141
:100430003154401C421C6A6134542146686930447E
:10044000E86087E00868C01D20F007000860D0E978
:10045000002308300860C5E90023D5E90001C80F72
:1004600004D06869411C69612D220DE0288F810745
:1004700004D56869411C69612B2205E0C00704D5D9
:100480006869411C69612022325468693044E8601F
:100490002146284600F0C8F992E005F13A0250786A
:1004A00020B14FF0FF340FF6502062E01078622840
:1004B00008D0682824D06A2812D06C282ED0712841
:1004C0000ED02BE00A680A6052F8040B0A6020B9CB
:1004D0004FF0FF340FF638204BE0E96A01706FE00F
:1004E0000A680A6052F8040B0A6020B94FF0FF3422
:1004F0000FF61C203DE0EA6AD317C0E900235FE055
:100500000A680A6052F8040B0A6020B94FF0FF3401
:100510000FF6FC102DE0E96A018051E00A680A60DC
:1005200052F8040B0A6020B94FF0FF340FF6E010C8
:100530001FE0E96A016043E00A680A6052F8040BB0
:100540000A60002120F0000221F0FF33C5E90023FA
:10055000EE607821284600F0BBF831E008680860BA
:1005600050F8044B0860EC603CB94FF0FF340FF6D4
:10057000B81000F01DFD201A70BD2E6B002E04D5A2
:10058000204600F035FD044608E0324600212046B2
:1005900000F04AFD002814BF041B3446AC610FE094
:1005A0006869411C69612522325409E06969481C67
:1005B000686125227254210002D0431C6B613454BF
:1005C000002070BD2DE9FC410F46064690467A6B2F
:1005D0007869396ABC6A121AB869521A796A121AA9
:1005E000F869521A121A97F83800141B41070FD4F1
:1005F0002020002C8DF800000ADD254601236A46E4
:100600003946304600F060FC00285DD16D1EF5D102
:100610007B6942463946304600F056FC002853D1EB
:1006200030208DF800003D6A002D09DD01236A4667
:100630003946304600F048FC002845D16D1EF5D102
:10064000BB69FA683946304600F03EFC00283BD1D1
:1006500030208DF800007D6A002D08DD01236A46F8
:100660003946304600F030FC70BB6D1EF6D1F8689C
:10067000B969FB6942183946304600F025FC18BBC1
:1006800030208DF80000BD6A002D08DD01236A4688
:100690003946304600F018FCB0B96D1EF6D197F817
:1006A000380041070DD52020002C8DF8000008DD12
:1006B00001236A463946304600F006FC20B9641E24
:1006C000F6D10020BDE8F6814FF0FF30BDE8F6819D
:1006D0002DE9FC4707468C463E69BCF16F0F08BF09
:1006E000082405D04CF02000782814BF0A241024D8
:1006F0003C25D7E90023BCF1640F18BFBCF1690F9A
:100700009046994606D100218B4203DAD8F10008C1
:1007100069EB49094FF0000AD14508BFD0451FD108
:10072000386BE8B9082C4BD197F83800010747D54A
:1007300030203B2586F83B0042E000280ED597F894
:10074000380000F01400102808D17B6B7969386AF2
:100750005B1A1B1A9A1A002AC8BF3A62BDE8F387CF
:100760008DF800C0404649462246E31700F088FC59
:100770003032D0B26D1E3A28019504DB9DF800009E
:10078000A0F151018A187255404649462246E317A6
:1007900000F076FC89468046D14508BFD04503D09D
:1007A000F86871198842DDD3082C09D197F8380010
:1007B000010705D5705D302802D06D1E30207055C0
:1007C000C5F13C02BA617119F960386B8242B4DA42
:1007D000821A3A624FF6EF70398F01403987BDE8CF
:1007E000F3872DE9D04306460F4614464FF0000824
:1007F000DFF8389412E0E00707D542464B46304612
:10080000394600F055FD06460F46404649464246E9
:100810004B4600F04DFD641080468946002CEAD11D
:1008200030463946BDE8D0832DE9F34F054641F007
:1008300020048DB0D5E90089612C02AE09D0286B67
:10084000002848BF062003D408BF672C01D101202F
:100850002863D5E9002358004015401C0ED1190328
:100860000CD00320A8619DF8381061391A2902D2F2
:100870000FF2D06111E00FF2D0610EE0590049157E
:10088000491C0FD118030DD10320A8619DF8381021
:1008900061391A2914D30FF2B861E868032200F015
:1008A000D9FDD3E1194621F00043B3F5801F10466E
:1008B0000DD20027BB4208BFBA42019703D111E015
:1008C0000FF28861E9E701AA00F018FE0AE0DFF8FC
:1008D000607307EB1352DFF85C3301921940DFF8C5
:1008E00058331943C5E90001612C0ED1E868302165
:1008F0000170821CEA609DF8381061290CBF7821D4
:10090000582141706869801C6861D5E900AB2BF003
:10091000004300202AF00002834204BF82420023E9
:1009200000F05B81612C40F0AA80286B002847BF53
:1009300021210091401C0090009F7F1C40464946A9
:100940000022002300F012FED94601998DF80820FC
:1009500038BF89F00049091F002FD04601910DF1E1
:10096000090040F34981B349DFF8D0B20C91064643
:10097000404649460022002300F010FE80F03B81F3
:100980004800400D00F11C0211D0002A0FDD40F29A
:10099000FF70824205DB09F0004040EA0B010020B5
:1009A00013E00C98014041EA025140460DE029F065
:1009B0000043002028F00002834208BF82420FBF9C
:1009C00040461C22404600F001FE8046894600F069
:1009D0009BFEFF1F002F044609DD00F0B3FE024618
:1009E0000B464046494600F0BFFE80468946F01D52
:1009F000072104E004F00F0200F8012D2411002C5F
:100A000001DD491EF6D5491E5CBF002200F8012D0C
:100A1000F9D5ECE00020194602AA0A4400E05B1E6A
:100A200012F80149491E8442F9D00F2804D10DF172
:100A30000900425C521C4254002904D50198001D53
:100A400002AE5B1C0190591E12D49DF8380072183A
:100A5000A0F13A07147804F130085FFA88F43A2CD0
:100A6000A8BFB844491E02F80189F3D58DF83800B3
:100A7000286B002840F1B080591E2963ACE0404645
:100A800049460022002300F071FD019938BF89F02A
:100A9000004947F297504143694A91FBF2F20192B3
:100AA000D2F1070204DD40464946FFF79AFE0AE00C
:100AB000524200206349FFF794FE02460B4640462F
:100AC000494600F0C3FE8046662C286BDFF878B1FB
:100AD00006BF019F0A3706273F18142FC8BF1427E7
:100AE00030208DF8080089460DF1090000E03046FD
:100AF000002F34DD06464046494600F0CBFF014654
:100B00000A4606F1080304200A26B2FBF6F606EBB5
:100B1000860EA2EB4E02303203F8012C0A22B6FBFD
:100B2000F2F202EB820EA6EB4E063036401E03F8C0
:100B3000026DE9D1083F002F03F10806D7DD084612
:100B400000F0BCFF02460B464046494600F00CFE52
:100B500000225B4600F0ACFB80468946CBE70DF1F6
:100B60000901401A0DF1090604E00199491E401ED1
:100B70000191761C31783029F7D0662C02D1019989
:100B8000491C03E0652C0CBF012100212B6BCB1805
:100B90009842B8BF431E002B1ED4834204DAF05C97
:100BA0003528A8BF392000DA30201946721E02EB22
:100BB000010800E05B1E18F80199491E8145F9D033
:100BC000392802D1705C401C7054002904D501986A
:100BD000401C16465B1C0190019800B200901BB2AD
:100BE0009DF838103246284600F034F82EE0C61D35
:100BF000002F3FF7BDAE30460DF10901401A0099B4
:100C000003468842C8BF0B46002B0DF109063FF58D
:100C10002FAF8342BFF6FEAE0DF10900C15C07297C
:100C20007FF7F8AE0F20F6E6CBCCCC0C00002440CA
:100C300002FCFFFFFFFF0F800000E03F0000F07F9D
:100C4000A08601000000F03F84D797410FB0BDE8B7
:100C5000F08F00002DE9F84783B006468A46174614
:100C6000984600F039FFB8F1000F406A356B90F8F4
:100C7000009002DC4FF00108B6A74AF02000BDF951
:100C80003040662808BF641C15D0672840F0848077
:100C900014F1040FC0F28680AC4280F2838096F893
:100CA0003800641C010702D4A845B8BF454620B2ED
:100CB0002D1A48BF00250FFA84FAF068B169BAF11D
:100CC000000F25DC4A1C30234354002D03DC96F82A
:100CD0003800010703D5F06800F80290521C15EBAC
:100CE0000A0FB8BF6C4220B2441941424445B8BF14
:100CF000A046B26171620FFA88F5F561F068B369D8
:100D00002A463946184400F0A5FB641BB462C4E0CF
:100D100022B29045084417DA4246394600F09AFB61
:100D2000B0694044B061AAEB0801002D716203DC98
:100D300096F838100A0705D5F16801F80090F069B7
:100D4000401CF061B562A8E0394600F083FBB06951
:100D5000002D5044A8EB040803DC96F838100A076D
:100D600003D5F16801F80090401CB0610FFA88F0DB
:100D70008542F368B069B8BFA8460FFA88F207EB5E
:100D80000A01184400F066FBB1690FFA88F00144CB
:100D9000B161281A706280E0BAF1610F14D14FF08E
:100DA000700A16E0A84504DA96F838100A0758BF0A
:100DB00045466D1E48BF0025BAF1670F14BF4FF0BE
:100DC000450A4FF0650A04E0BAF1410F08BF4FF041
:100DD000500AB169F368481CB061002D17F8012B67
:100DE0005A5403DC96F838100A071BD5F168431CE7
:100DF000B36101F80090002D14DDA8F101080FFA8D
:100E000088F039468542F768B8BFA8460FFA88F2DD
:100E1000F81800F01FFBB0690FFA88F108446D1A4A
:100E2000B0617562F068B1690844002C80F800A0D8
:100E300003D42B224270811C03E02D2141706442B7
:100E4000811C00206A460AE023460A2493FBF4F43E
:100E500004EB8405A3EB450302F8013B401C24B2DC
:100E6000002CF1DC012806DC4AF02002652A04BFD0
:100E7000302201F8012B48B9302001F8010B07E0BE
:100E8000401E1DF80030303301F8013B0028F7DC2C
:100E9000F268B0691044091AF16196F8380000F060
:100EA000140010280DD17269B169706A8A18F1694D
:100EB0008218B06A8A188218706B8242BCBF821A8C
:100EC000326204B0BDE8F087F8B505460E46174615
:100ED0001C46002074B117F8011BB068A847B06029
:100EE00030B1F06A401CF0620020641EF3D1F2BD04
:100EF0004FF0FF30F2BD00007072696E74665F7370
:100F00003A20256E20646973616C6C6F77656400AC
:100F10007072696E74663A2062616420256E206189
:100F20007267756D656E74007072696E74665F735A
:100F30003A2062616420257320617267756D656E69
:100F4000740000006E616E004E414E00696E6600D6
:100F5000494E4600300030B4002513E050F8042B11
:100F6000D30744BFA9F101039A18091F042942F8C5
:100F7000045BFAD213468C0744BF15809B1CC9073B
:100F800048BF1D7050F8041B0029E7D130BC7047E2
:100F90000278C9B28A421AB11CBF10F8012FF9E7D2
:100FA00018BF002070470268531C0360117070471F
:100FB00080B500B906A005490B681BB122220021AB
:100FC000984701E000F08CFD222002BD580100206E
:100FD000636F6E73747261696E742068616E646CA5
:100FE00065723A20626164206D65737361676500A4
:100FF00000F10103810704D010F8011B820781B1C1
:10100000FAD10268A2F10131914311F0803104BF9D
:1010100050F8042FF6E709BAB1FA81F100EBD100DC
:10102000401CC01A70470102C9B2830706D0521E85
:1010300022D310F8013B9942F7D11FE0083A13D3AD
:1010400002F1040241EA012141EA014150F8043B66
:10105000121F21BF4B40A3F1013C2CEA030C1CF0F2
:10106000803FF3D0C9B2001F083210F8013B521E76
:1010700028BF91EA030FF8D818BF0120401E70471F
:10108000BBBBE1B1B2F5803F80F07E80022A1ED961
:101090008C46B1FBF2F102FB11C31B0443EA10437F
:1010A000B3FBF2FC02FB1C3380B240EA0343B3FB08
:1010B000F2F002FB103240EA0C4000237047022A93
:1010C00005D98446B0FBF2F002FB10C270474AB16A
:1010D00005D100F0010249085FEA300070470022A4
:1010E0000023704700F000BD0B000200002100202B
:1010F0007047904271EB030CF6D3B3F5803F2FD2CB
:10110000F0B5B3FA83F7B1FA81F4A7F10F0E3D1BE6
:101110005340CEF1200602FA0EF2F3415340B5F1EE
:101120000F0746D80F3C2C444140C4F12006A04094
:10113000F1414140B1FBF3F603FB1611A2FB06455A
:10114000001BA94102D2761E8018594180EA010293
:1011500021FA0EF362FA0EF200215A403046F0BD39
:1011600030B4B1FBF3FC03FB1C11A2FB0C45001BCC
:10117000A94103D2ACF1010C8018594130BC0246A0
:101180000B46604600217047B2F1807F65D3F0B511
:10119000B2FA82F7B1FA81F4C7F10F063D1B22FAC9
:1011A00006F307F1110EF24120355A40B5F10F0751
:1011B000B8D94140C4F12006A040F1414140B1FB03
:1011C000F3FC03FB1C11A2FB0C45001BA94103D23D
:1011D000BCF1010C801859410F2F12D30F3FC903E6
:1011E00041EA5041B1FBF3F603FB1611A2FB0645A1
:1011F000D4EBC030A94102D2761E8018594146EA8C
:10120000CC3C07B34140C7F12006B840F141414012
:10121000B1FBF3F603FB1611A2FB0645001BA94127
:1012200002D2761E8018594180EA010221FA0EF39B
:10123000C7F1200462FA0EF20CFA07F05A402CFAB9
:1012400004F13043F0BD80EA010221FA0EF30021DF
:1012500062FA0EF260465A40F0BD8C46B1FBF2F1E4
:1012600002FB11C31B0243EA1063B3FBF2FC02FB57
:101270001C331B024CEA002043EA1063B3FBF2FC70
:1012800002FB1C331B024CEA002043EA1063B3FB51
:10129000F2FC02FB1C331B024CEA002043EA106301
:1012A000B3FBF2FC02FB1C324CEA00200023704727
:1012B000B0B581EA030C0CF0004C40F2FF7515EA62
:1012C00011541DBF15EA1357AC42AF4239E0E4197F
:1012D00023EA455343F48013C90241F0004141EA37
:1012E000505EC7021100A7FB020200284FF0000069
:1012F000EEFB01204FF00001E3FB072118BF42F095
:101300000102401800214941E3FB0E01A4F580646D
:101310000F0302D252004041494154F101046CDDF7
:10132000470872F1004250F1000051EB0451A1F561
:1013300080115CBF41EA0C01B0BD4CEA05510020B0
:10134000B0BD05EA1357AC4214BFAF4241E050EACA
:10135000410E1CBF52EA430E02E061460020B0BDC0
:1013600024423C441BD15FEA070EF6D0090302BFBA
:1013700001460020AEF1140EB1FA81F7AEEB07047E
:1013800001FA07FE0C37C7F1200100FA07F7C84041
:101390004EEA000E23EA455343F48013A2E733F0EC
:1013A0000043B3FA83F704BFB2FA82FE77440B3FDF
:1013B000E41BB7F1200E2FBF02FA0EF3BB40C7F1BA
:1013C000200E22FA0EFE38BF43EA0E03BA40641C18
:1013D00082E750EA410E14BF52EA430E6FF000015B
:1013E0004FF4001717EB430F8ABF194617EB410F55
:1013F000B5E74CEA05510020B0BDD4F10104B4F1C9
:1014000020070FDAC4F12007520828BF42F001027A
:1014100010FA07F501FA07F7E1BF2A43E040384325
:10142000E1400FE0352C98DCC7F1200452EA40027D
:1014300020FA07F218BF42F0010231FA07F0A1408A
:101440000A43002172F1004250F1000051EB0C01FF
:10145000B0BD000062B38B0708D0521E11F8013BEB
:1014600000F8013B00F024808B07F6D1830740F0A1
:10147000208000BF103A07D330B4B1E83810103ADA
:10148000A0E83810F9D230BC530724BFB1E80810E7
:10149000A0E8081044BF51F8043B40F8043BD207D1
:1014A00024BF31F8022B20F8022B44BF0B780370C5
:1014B0007047121F17D35B0009D151F8043B20F885
:1014C000023B1B0C121F20F8023BF6D20BE051F836
:1014D000043B00F8013B1B0A20F8023B1B0C121FC7
:1014E00000F8013BF3D238BF121D521E24BF11F881
:1014F000013B00F8013BF8D87047000010B51446D6
:1015000000F002F8226010BDC1F30A5343B14A0053
:1015100012F5001F28D2A3F2FE32A1EB0251704750
:1015200050EA410C20D001F0004C31EA0C01B1FA34
:1015300081F204BFB0FA80F3D2180B3AB2F1200363
:101540002CBF00FA03F1914041EA0C013EBFC2F109
:10155000200C20FA0CF319439040524240F2FD3324
:10156000D21A01EB03517047002270474FF4001C60
:101570001CEB410F94BF1CEB430F09E041EA030C45
:1015800050EA4C0C52EA0C0C03D2994208BF90422C
:10159000704714BF8B428242704700004FF4001C1A
:1015A0001CEB410F94BF1CEB430F09E041EA030C15
:1015B00050EA4C0C52EA0C0C03D28B4208BF824218
:1015C000704714BF9942904270470000124254D4B1
:1015D00040F2FF7C1CEA11530FD0634531D09B18B9
:1015E00063453CBF01EB0251704701F0004141EA05
:1015F0000C510020AFF30080704750EA410320D027
:1016000001F0004C91EA0C011CD0B1FA81F30B3BC4
:101610009A420DD9D21A994051EA0C01C3F1200C1B
:1016200020FA0CFC61449840531C40F2FF7CD7E741
:10163000914041EA0C01C2F1200C20FA0CF319434D
:1016400090407047B0FA80F31533202BE0D3202A66
:10165000EED3203A203B9A4209D9D21A00FA03F17C
:1016600041EA0C010020531C40F2FF7CB8E700FA6D
:1016700002F141EA0C0100207047524240F2FF7C27
:101680001CEA11530DD06345DBD0B2EB030C3CBF19
:10169000A1EB025170470CF1010221EA035141F420
:1016A000801150EA410CCCD001F0004C352A27DCE7
:1016B00030B481EA0C01B2F1200309DAC2F120034F
:1016C000044601FA03F5D0402843D1409C400CE089
:1016D000C3F12002450020FA03F418BF44F00104CE
:1016E00021FA03F091400C43002174F1004550F1C0
:1016F000000051EB0C01244230BC7FF47BAF7047FB
:101700006146002076E70000C1F30A5340F2FE3242
:101710009B1A14DDD3F120034FEAE17208DDC90200
:1017200041EA505141F00040D84080185040704785
:1017300003F2E13010B1D24382F000407047002044
:1017400070470000C11768B14840401AB0FA80F2F3
:101750009040D21CC907C2F5846241EA025202EBF2
:10176000D02140057047000070B44FF0004591EA69
:10177000030F40F1BB816B40841A71EB030603D267
:10178000001BB141121973414FF4001C1CEB410FB7
:1017900034BF7CEB430442E00C0DA4EB1356352E12
:1017A0004FDC45EAC323DB0A45EAC121C912B6F181
:1017B00020050DDD63FA05F6EB4086EA03051242CB
:1017C00018BF45F00105C01851F100010CD213E01B
:1017D00062FA06F5F2405540F3415A40B340F340F7
:1017E0005A408018594107D349085FEA30005FEA40
:1017F000350528BF45F0010501F58011420875F156
:10180000004250F1000041EB04514E0016F5001F5C
:1018100070BC38BF70470020090D090570471CEBEC
:10182000410F10D252EA43060BD0BCEB410F05D852
:101830000C0DAB43661E342EB6DD02E0AB438018C0
:10184000594170BC704770BC70470000F0B540F261
:10185000FF7581EA030C0CF0004C15EA11541DBF12
:1018600015EA1357AC42AF42E5E0BC41C1F31301A6
:10187000C3F31303801A994143F4801304D2641E06
:101880004000494180185941C90241EA5051B1FB19
:10189000F3F603FB1611A2FB0675D7EBC020A94196
:1018A00002D2761E80185941C90241EA5051B1FB5B
:1018B000F3FE03FB1E11A2FB0E75D7EBC020A9415E
:1018C00003D2AEF1010E80185941890241EA9051CC
:1018D000760546EA8E2EB1FBF3F603FB1611A2FB4A
:1018E0000675D7EB8020A94102D2761E8018594197
:1018F000C90241EA50514EEA060EB1FBF3F603FB72
:101900001611A2FB0675D7EBC020A94102D2761EA4
:1019100080185941C90241EA5051B1FBF3F703FB6A
:101920001711A2FB0735D3EBC020A94167F10007CF
:101930000CBF004247F0010766F3D5274FEA1E317E
:10194000B80814F5806412DDBD0775F1004250EB54
:101950000E5051EB045111F5801F5CBF41EA0C01A0
:10196000F0BD4CF07F6141F0E0410020F0BDBD07CB
:101970006D0840EA0E5041F48011D4F10104B4F135
:1019800020060ADAC4F120060200E04001FA06F35C
:10199000E1401843B24015430EE0342C13DCC6F18D
:1019A000200445EA40056D0820FA06F2154321FAA5
:1019B00006F0A1400D43002175F1004250F10000F6
:1019C00051EB0C01F0BD00205FEA0C01F0BDCFB976
:1019D00092185B41B3FA83F704BFB2FA82F6BF19DB
:1019E0000B3FB7F120062FBF02FA06F3BB40C7F149
:1019F000200622FA06F638BF3343BA401CB1E41978
:101A0000641E33E77F4231F00041B1FA81F404BF34
:101A1000B0FA80F6A4190B3CB4F120062FBF00FAEF
:101A200006F1A140C4F1200620FA06F638BF314382
:101A3000A0403C1B1AE7AC421ABF05EA1357AF425D
:101A400012E050EA41061CBF52EA4306BFE750EAE3
:101A50004107304661461CBF41EA0551F0BD52EADC
:101A6000430C08BFC143F0BD00204FF4001616EB35
:101A7000410F98BF16EB430F08BF16EB410F24BF71
:101A8000C14305E016EB430F0CBF61464CEA05511C
:101A9000F0BD0000400D491840EA81200CD2490DEC
:101AA000A1F58061491C40F0004005DBD1F11F0128
:101AB00054BFC840C017704700207047014648B166
:101AC000B0FA80F18840C91CC1F58461090501EBB9
:101AD000D0214005704700000048704708000020F2
:101AE000012000F0B9B8000070470000841A71EBC3
:101AF000030604D26E40001BB141121973414FF42A
:101B0000001C1CEB410F34BF7CEB430683E00C0D43
:101B1000A4EB1356362E00F37C80012E45EAC32336
:101B200041DC43EA525312BFD20292025B08240501
:101B300045EAC12141EA5051D2EBC020994125D458
:101B400007D1B0FA80F610FA06F162D000202036F4
:101B500008E0B1FA81F6B140C6F1200220FA02F2A3
:101B60001143B0404FEAF474B4EB465434F001062C
:101B70004FEA74040AD8D6F50016760D04F0004436
:101B8000F04061FA06F25040F1404840C00A40EA95
:101B9000415021F0004128BF5FEA500550F100009C
:101BA00044EBD12135E0DB0A45EAC121C90AB6F18F
:101BB00020050EDD42EA0242120CC5F1200603FAAE
:101BC00006F6EB4042EA06056D42984161F10001DC
:101BD0000DE062FA06F5F240554063FA06FC82EA2F
:101BE0000C02F3405A406D42904161EB030111F445
:101BF000801F05D1641E620502D06D00404149413D
:101C000021F48011430875F1004350F1000041EBCD
:101C1000045170BC70471CEB410F15D223F00043F8
:101C200052EA43060BD04FEA4C0CBCEB410F04D8F0
:101C30000C0D661E342EB7DDEBE7801A994150EA91
:101C4000410608BF0021E4E708BF1CEB430F28BF93
:101C50006FF00001DDE7000080B5AFF30080024ABD
:101C600011001820ABBEFBE7260002002DE9FC4165
:101C70000400002C01D10120DFE12078C0076BD5E2
:101C8000DFF8BC05016811F00C01042907D00168D8
:101C900011F00C0108290CD10068C00309D5DFF848
:101CA0009C050068800357D56068002854D1012046
:101CB000C3E16068B0F5803F06D1DFF880050168B8
:101CC00051F48031016026E0606800280AD1DFF815
:101CD0006C05016831F480310160016831F48021C4
:101CE000016018E06068B0F5A02F0AD1DFF84C055C
:101CF000016851F480210160016851F48031016074
:101D000009E0DFF83805016831F4803101600168CD
:101D100031F480210160606800280ED000F0B2FA32
:101D20000500DFF818050068800315D400F0AAFA52
:101D3000401B6528F5D303207FE100F0A3FA0500DE
:101D4000DFF8F8040068800306D500F09BFA401B1A
:101D50006528F5D3032070E1207880071ED5DFF8D1
:101D6000E004016811F00C0F07D0016811F00C01BC
:101D700008292CD10068C00329D4DFF8C004016809
:101D8000890704D52169012901D0012055E10168A5
:101D900031F0F801626951EAC20101602078000760
:101DA00049D5A069002871D00120DFF8A814086087
:101DB00000F068FA0500DFF898040068800737D45F
:101DC00000F060FA401B0328F5D3032035E12069B9
:101DD00000281AD00120DFF88014086000F052FAC1
:101DE0000500DFF858040168890706D400F04AFAB4
:101DF000401B0328F5D303201FE1016831F0F801EF
:101E0000626951EAC2010160C8E70020DFF84814A6
:101E1000086000F037FA0500DFF82004006880074A
:101E2000BCD500F02FFA401B0328F5D3032004E1B2
:101E3000012000F0F1F92078400740F1968000265B
:101E4000DFF818542868C00009D4286850F0805082
:101E50002860286810F08050009000980126DFF874
:101E600000743868C00524D4386850F48070386035
:101E700000F008FA80463868C0051AD400F002FA6B
:101E8000B0EB08006528F6D30320D6E00020DFF889
:101E9000C413086000F0F6F90500DFF8B403006829
:101EA0008007C8D500F0EEF9401B0328F5D30320C6
:101EB000C3E0E068012806D1DFF8A803016851F00B
:101EC0000101016025E0E06800280AD1DFF89403F1
:101ED0000168490849000160016831F004010160AE
:101EE00017E0E06805280AD1DFF87803016851F0AF
:101EF00004010160016851F00101016009E0DFF8AF
:101F000064030168490849000160016831F0040177
:101F10000160E068002810D000F0B4F90700DFF895
:101F200044030068800719D400F0ACF9C01B41F2EB
:101F300089318842F3D303207FE000F0A3F9070042
:101F4000DFF820030068800708D500F09BF9C01B6C
:101F500041F289318842F3D303206EE0F6B2012EBC
:101F600003D1286830F080502860E069002863D0F1
:101F7000DFF8CC62306810F00C0008284AD0E06925
:101F8000022834D1DFF8E0720020386000F07AF9DE
:101F90008046DFF8A8522868800107D500F072F962
:101FA000B0EB08000328F4D3032046E0206AB0F524
:101FB000803F05D1316831F40031A06801433160C0
:101FC000316831F47411206A0143606A0143316061
:101FD0000120386000F056F90400286880012BD4F5
:101FE00000F050F9001B0328F7D3032025E0002060
:101FF000DFF87412086000F045F90400DFF83C02D5
:102000000068800118D500F03DF9001B0328F5D3C6
:10201000032012E0E069012801D101200DE03068C1
:1020200010F48031226A914204D110F47010616A78
:10203000884201D0012000E00020BDE8F6812DE9B2
:10204000F04104000E00002C01D1012098E0DFF8DF
:102050001C52286810F00700B0420BD22868C00854
:10206000C00030432860286810F00700B04201D05B
:10207000012085E02078800716D52078400704D518
:102080006F48016851F4E06101602078000704D5D1
:102090006B48016851F46051016069490A6832F087
:1020A000F002A06802430A602078C00732D5606859
:1020B000012805D161480068800310D401205FE049
:1020C0006068022805D15D480068800107D40120BE
:1020D00056E05A480068800701D4012050E0584F6C
:1020E00039688908890060680143396000F0CAF8DE
:1020F0008046386810F00C006168B0EB810F09D0A1
:1021000000F0C0F8B0EB080041F289318842F0D30A
:10211000032035E0286810F0070086420BD22868BB
:10212000C008C00030432860286810F00700B042A3
:1021300001D0012024E02078400706D540490A68F4
:1021400032F4E062E06802430A602078000707D5B5
:102150003B48016831F46051226951EAC2010160D3
:1021600000F010F84249364A1268C2F30312895C43
:10217000C840354908603548006800F089F80020FB
:10218000BDE8F08100B585B001A83A491022FFF7FB
:1021900071F939480088ADF80000002000200020C7
:1021A00000200020264A116811F00C00042802D0FB
:1021B000082802D014E0234813E001A8C1F38343A8
:1021C000C05CC90309D569461268C2F340428A5C03
:1021D0001C494843B0FBF2F001E02849484300E0C5
:1021E000184805B000BD18480068704780B5FFF773
:1021F000FAFF2349124A1268C2F30222895CC840DE
:1022000002BD80B5FFF7EFFF1D490D4A1268C2F30A
:10221000C222895CC84002BD81B00B490968C90867
:102220004FF47A72B1FBF2F14843009000BF00987E
:10223000411E00910028F9D101B070470010024002
:102240000410024000127A00040000200000002068
:102250002410024080044242000042421C1002400E
:102260000070004020100240600042420020024006
:102270002C3200081C3200082610000800093D001E
:102280006032000801480068704700BF5401002018
:1022900010B504004FF47A700D490978B0FBF1F0E5
:1022A0000C490968B1FBF0F000F099F8002801D062
:1022B00001200CE0102C09D2002221005FF0FF3039
:1022C00000F077F804480460002000E0012010BD11
:1022D00040000020040000200000002010F0070053
:1022E000484B1A684FF6FF010A40474951EA00215E
:1022F0000A431A60704743480068C0F302207047E1
:10230000010049B2002908D4012210F01F018A40BF
:102310003E4940B2400941F820207047020052B2C5
:10232000002A04D409013A4A40B2115407E00901D5
:10233000384A40B210F00F00104400F8041C7047F7
:1023400010B410F00700D0F10703052B01D30423CC
:1023500001E0D0F10703041D072C01D2002000E0AA
:10236000C01E012414FA03F35B1E1940814014FAC5
:1023700000F0401E1040084310BC704780B5411E5D
:10238000B1F1807F01D301200EE0401E2249086098
:102390000F215FF0FF30FFF7C1FF00201F490860E9
:1023A00007201F490860002002BD80B5FFF796FF97
:1023B00001BD70B504000D0016000020FFF79BFF63
:1023C00032002900FFF7BCFF0100200040B2FFF7F8
:1023D000A5FF70BD80B540B2FFF792FF01BD80B58B
:1023E000FFF7CCFF02BD042805D10D48016851F06C
:1023F0000401016004E00A48016831F00401016051
:10240000704700000CED00E00000FA0500E100E07C
:1024100000E400E018ED00E014E000E018E000E067
:1024200010E000E010B50400002C01D1012033E0E1
:10243000A0690028FFD194F83900002805D10020B8
:1024400084F83800200000F0CBFA242084F839000A
:102450002068C06830F400502168C860200000F097
:1024600036FA2068006930F49040216808612068DD
:10247000406930F02A00216848612068C06850F443
:1024800000502168C8600020E063202084F83900F3
:10249000202084F83A00002010BD2DE9FC41060000
:1024A0000D0014001F00002096F83900202857D195
:1024B000002D03D0200080B2002801D1012050E07F
:1024C00096F83800012801D102204AE0012086F860
:1024D00038000020F063212086F83900FFF7D2FE93
:1024E0008046B484F484B068B0F5805F04D130696C
:1024F000002801D1002401E02C000025002086F8EE
:1025000038000FE0207831684860641C07E0002C38
:10251000F8D12888C005C00D31684860AD1CF08C2A
:10252000401EF084F08C00280AD000974346002219
:102530008021300000F0E9F80028E8D0032010E006
:102540000097434600224021300000F0DEF80028CA
:1025500001D0032005E0202086F83900002000E0AB
:102560000220BDE8F68190F83A30202B2FD10029C7
:1025700003D013009BB2002B01D1012028E090F87A
:102580003830012B01D1022022E0012380F83830BD
:1025900081628285C2850021C163222180F83A10C0
:1025A000002180F838100168C96851F48071026810
:1025B000D1600168496951F0010102685161016807
:1025C000C96851F020010068C160002000E00220CD
:1025D000704738B50400206801682068C268206828
:1025E00043690020002011F00F00002807D18D065C
:1025F00005D5950603D5200000F017F984E00028E2
:1026000072D0D80702D412F4907F6DD011F001007F
:10261000C0B2002805D0D00503D5E06B50F0010012
:10262000E063480708D513F00100C0B2002803D0CA
:10263000E06B50F00200E063880708D513F001005A
:10264000C0B2002803D0E06B50F00400E06308073C
:102650000AD5900604D413F00103DBB2002B03D09B
:10266000E06B50F00800E063E06B00283BD0880688
:1026700004D5900602D5200000F0D7F82068406904
:10268000800910F00100E16B090701D4002825D072
:10269000200000F071F82068406940061AD52068D3
:1026A000406930F0400021684861606B00280DD01F
:1026B0000FF2E500616B4863606B00F0DBF9002806
:1026C00011D0606B616B496B88470CE0200000F013
:1026D000C9FA08E0200000F0C5FA04E0200000F08C
:1026E000C1FA0020E0630FE0080605D5100603D507
:1026F000200000F05BF807E0480605D5500603D53A
:10270000200000F084F8FFE731BD2DE9F04105001D
:102710000E0090461F00069C286800683040B042BA
:1027200001D1012000E000204146C9B2884220D1F9
:1027300014F1010FF0D0002C04D0FFF7A3FDC01B53
:102740008442E9D22868C06830F4D0702968C86033
:10275000286840694008400029684861202085F8C1
:102760003900202085F83A00002085F83800032041
:1027700000E00020BDE8F0810168C96831F4907183
:102780000268D160016849694908490002685161DD
:10279000202180F83A10704780B5406A0021C18539
:1027A0000021C18400F05EFA01BD000090F83910EC
:1027B00021292AD18168B1F5805F0CD101690029F6
:1027C00009D1016A0988C905C90D02685160016A09
:1027D000891C016205E0016A4A1C026209780268EC
:1027E0005160C18C491EC18489B200290BD1016896
:1027F000C96831F080010268D1600168C96851F090
:1028000040010068C160002000E00220704780B5F0
:102810000168C96831F040010268D160202180F868
:10282000391000F020FA002002BD80B590F83A106F
:1028300022294AD18168B1F5805F0DD10169002953
:102840000AD10021816A02685268D205D20D0A803D
:10285000816A891C816217E0826A00218168B1F572
:10286000805F05D08168002906D10169002903D164
:1028700001684968117004E00168496811F07F013E
:102880001170816A491C8162C18D491EC18589B25E
:10289000002918D10168C96831F020010268D160AF
:1028A0000168C96831F480710268D16001684969C2
:1028B0004908490002685161202180F83A1000F06F
:1028C000D3F9002002E0002000E0022002BDF8B5AC
:1028D00004002068016931F44051E0680143206838
:1028E0000161A16820690143606901432068C268F1
:1028F0002A48024011432068C1602068416931F4D0
:102900004071A069014320684161206824498842E0
:1029100002D1FFF776FC01E0FFF768FC6421192281
:1029200002FB00F36568AD00B3FBF5F36425B3FB70
:10293000F5F302FB00F56668B600B5FBF6F502FBA1
:1029400000F66768BF00B6FBF7F66427B6FBF7F63C
:1029500001FB16552D0132356426B5FBF6F515F051
:10296000F00515EB031502FB00F36668B600B3FB38
:10297000F6F3504362689200B0FBF2F06422B0FBC1
:10298000F2F001FB1031080132306421B0FBF1F0AC
:1029900010F00F00451920688560F1BDF3E9FFFFD5
:1029A0000038014081B02E48016851F001010160FA
:1029B000006810F00100009000982A48016851F06A
:1029C00080510160006810F0805000900098264906
:1029D000086830F0E06050F00070086001B07047A7
:1029E00018B585B004006846102100F011FA20687F
:1029F0001F49884231D11A48016851F48041016071
:102A0000016811F4804104910499016851F00401B6
:102A10000160006810F00400049004984FF4007006
:102A200000900220019003200390104C6946200082
:102A300000F0F2F94FF48060009000200190002037
:102A400002906946200000F0E7F9002200212520CD
:102A5000FFF7AFFC2520FFF7BDFC06B010BD00005E
:102A6000181002401C100240040001400008014000
:102A70000038014010B5002490F82110022903D03D
:102A8000042181630124CEE00168096831F00E0160
:102A9000026811600168096849084900026811600C
:102AA0000168DFF88C21914259D30168DFF8842155
:102AB000914201D101214EE00168DFF87C21914271
:102AC00001D1102147E00168DFF87021914202D165
:102AD0004FF480713FE00168DFF86421914202D138
:102AE0004FF4805137E00168DFF85821914202D15C
:102AF0005FF480312FE00168DFF84C21914202D170
:102B00005FF4801127E00168DFF84021914202D193
:102B10005FF080711FE00168DFF81021914201D160
:102B2000012118E00168DFF82821914201D110212C
:102B300011E00168DFF81C21914202D14FF480714D
:102B400009E00168DFF81021914202D14FF4805171
:102B500001E05FF48031DFF80421116058E0016882
:102B6000DFF8D020914201D101214EE00168DFF869
:102B7000C820914201D1102147E00168DFF8BC2054
:102B8000914202D14FF480713FE00168DFF8B0203C
:102B9000914202D14FF4805137E00168DFF8A42060
:102BA000914202D15FF480312FE00168DFF8982074
:102BB000914202D15FF4801127E00168DFF88C2098
:102BC000914202D15FF080711FE00168DFF85C2064
:102BD000914201D1012118E00168DFF8742091428F
:102BE00001D1102111E00168DFF86820914202D183
:102BF0004FF4807109E00168DFF85C20914202D156
:102C00004FF4805101E05FF48031DFF8542011600F
:102C1000012180F82110002180F82010416B00294B
:102C200001D0416B88472000C0B210BD08040240AB
:102C300081000240080002401C00024030000240B7
:102C400044000240580002406C00024080000240F4
:102C50001C040240300402404404024004040240C8
:102C6000040002407047704710B500685D49884213
:102C700024D15D4A107800280BD1002005E0002106
:102C80005A4B0400E4B21955401C0100C9B2642932
:102C9000F5DB574908780D2807D00878534B14788E
:102CA00018551078401C107004E0002010700120AE
:102CB000504A107001224A48FFF755FC10BDF8B584
:102CC00000F0B4F900F02DF800F07BF800F05FF8A8
:102CD000434C012246492000FFF745FC454D28782A
:102CE0000028FBD0444E414A4449300000F0B0F97E
:102CF000434F3000FEF77CF938604FF47A73386840
:102D0000020092B231002000FFF7C7FB00202870BC
:102D10004FF4FA7000F0BCF93A480168491C0160B0
:102D2000DCE700B58FB0022005900120099010204B
:102D30000A9000200C9005A8FEF798FF002801D00B
:102D400000F064F80F200090002001900020029015
:102D5000002003900020049000216846FFF76FF9DF
:102D6000002801D000F052F8FFF73DFA4FF47A71D5
:102D7000B0FBF1F0FFF733FB0420FFF734FB002238
:102D800000215FF0FF30FFF714FB0FB000BD80B5EE
:102D90001348144901605FF4E13141600021816012
:102DA0000021C160002101610C214161002181618C
:102DB0000021C161FFF736FB002801D000F026F8A2
:102DC00001BD81B01048016851F004010160006844
:102DD00010F004000090009801B07047000000005F
:102DE0000C010020003801405E010020A8000020F6
:102DF0005C0100205F0100204400002058320008E0
:102E0000500100204C01002018100240FEE7000095
:102E1000002200F051B90000F8B50200002300259F
:102E200014E0DFF8C001066836EA040404600CE030
:102E3000DFF8B4010668A643066048688002F0D552
:102E4000DFF8A0010668344304605B1C0868D840C2
:102E5000002800F0C68001269E400C683440B44231
:102E6000F3D1486800282BD001281ED0022821D099
:102E7000032833D011281AD012281ED0DFF86C7125
:102E8000B8421DD0DFF86871B84219D0DFF864711C
:102E9000B84215D0DFF86071B84211D0574FB84230
:102EA0000ED0574FB8420BD01AE0CD6818E0CD686D
:102EB0002D1D15E0CD68083512E0CD680C350FE00A
:102EC0008868002801D1042507E08868012802D11C
:102ED0000825166101E00825566101E00025FFE79D
:102EE000B4F5807F01D2170000E0171DB4F5807F94
:102EF00002D25FEA830C03E0B3F1080C5FEA8C0CAA
:102F00000F26D7F800E016FA0CF03EEA000E15FA8C
:102F10000CFC5CEA0E0CC7F800C04868C00094D5F1
:102F20003848076857F001070760006810F0010093
:102F300000900098344F1800800857F820C013F014
:102F40000300C0B2800086403CEA060C2F48824253
:102F500001D1002619E02E48824201D1012614E059
:102F60002C48824201D102260FE02B48824201D137
:102F700003260AE02948824201D1042605E02848B8
:102F8000824201D1052600E0062613F00300C0B2FC
:102F90008000864056EA0C0C1800800847F820C0D4
:102FA0004868C00304D51F4806682643066003E04E
:102FB0001C480668A64306604868800304D51A4882
:102FC00006682643066003E017480668A6430660C5
:102FD0004868C0027FF52CAF0348066826430660A8
:102FE0002BE7F1BD0C040140080401400000111062
:102FF000000012100000211000002210000031100B
:103000000000321018100240080001400008014082
:10301000000C014000100140001401400018014064
:10302000001C0140000401400404014080B5074831
:10303000016851F0100101600320FFF7B6F900208C
:10304000FFF726F9FFF7AEFC002002BD002002408A
:103050000CB430B583B00A4606A902910446002597
:103060000194009502AB01A9084878441E30FDF791
:103070005FF8019A157000284EBF04460198041BA2
:10308000204603B030BC5DF80CFB00BF1BDFFFFF28
:1030900038B50400FFF7F6F8050014F1010F02D06F
:1030A000044800780419FFF7EDF8401BA042FAD35A
:1030B00031BD00BF4000002000B500BF13009646A0
:1030C0009446103928BFA0E80C50FAD85FEA417C3A
:1030D00028BF0CC048BF40F8042BC90728BF20F800
:1030E000022B48BF00F8012B00BD000010000000BB
:1030F0000024F400683200086832000868320008D2
:103100006832000868320008683200086832000837
:10311000FFFFFFFFFFFFFFFF6A3200086832000871
:1031200068320008FFFFFFFFFFFF00000100000002
:1031300030B450F8041B79B1026843680244083087
:10314000DC0744BFA9F10104E31852F8045B43F81B
:10315000045B091FF9D1ECE730BC7047FEE7FEE7DE
:10316000FEE7FEE7FEE770477047704780B500F066
:1031700009F801BD80B50248FFF72BFA01BD000038
:103180000C01002003490A680348007882180A608D
:10319000704700BF540100204000002010B50749CF
:1031A00079441831064C7C44163404E00A68081D42
:1031B000114488470146A142F8D110BD0800000023
:1031C0002800000093DDFFFF1C01000044000020E8
:1031D000000000005DFFFFFF4400000010FFFFFF44
:1031E000000000200000000000F00DF8002801D0D1
:1031F000FFF7D4FFAFF300800020AFF30080FFF7AC
:103200005EFD00F002F80120704700F001B80000F8
:1032100007463846FEF720FDFBE7000002030405E1
:10322000060708090A0B0C0D0E0F10100000000015
:103230000000000001020304060708090148804756
:1032400001480047593300084D320008AFF30080B1
:10325000AFF30080FFF7C8FF25730D0A00000000E0
:10326000000000000102030400002E00FFF7FEBF73
:10327000FFF7FEBFFFF7FEBFFFF7FEBFFFF7FEBF82
:10328000FFF7FEBFFFF7FEBFFFF7FEBFFFF7FEBF72
:10329000FFF7FEBFFFF7FEBFFFF7FEBFFFF7FEBF62
:1032A000FFF7FEBFFFF7FEBFFFF7FEBFFFF7FEBF52
:1032B000FFF7FEBFFFF7FEBFFFF7FEBFFFF7FEBF42
:1032C000FFF7FEBFFFF7FEBFFFF7FEBFFFF7FEBF32
:1032D000FFF7FEBFFFF7FEBFFFF7FEBFFFF7FEBF22
:1032E000FFF7FEBFFFF7FEBFFFF7FEBFFFF7FEBF12
:1032F000FFF7FEBFFFF7FEBFFFF7FEBFFFF7FEBF02
:10330000FFF7FEBFFFF7FEBFFFF7FEBFFFF7FEBFF1
:10331000FFF7FEBFFFF7FEBFFFF7FEBFFFF7FEBFE1
:10332000FFF7FEBFFFF7FEBFFFF7FEBFFFF7FEBFD1
:10333000FFF7FEBFFFF7FEBFFFF7FEBFFFF7FEBFC1
:10334000FFF7FEBFFFF7FEBFFFF7FEBFFFF7FEBFB1
:0A335000FFF7FEBFFFF7FEBF704756
:040000050800324D70
:00000001FF
