:020000040800F2
:1000000018040020C10F0008750F0008770F0008C2
:10001000790F00087B0F00087D0F0008000000002A
:100020000000000000000000000000007F0F00083A
:10003000810F000800000000830F0008850F0008F2
:10004000DD0F0008E10F0008E50F0008E90F0008C8
:10005000ED0F0008F10F0008F50F0008F90F000878
:10006000FD0F000801100008051000080910000825
:100070000D100008111000081510000819100008D4
:100080001D10000821100008251000082910000884
:100090002D10000831100008351000083910000834
:1000A0003D100008411000084510000849100008E4
:1000B0004D10000851100008551000085910000894
:1000C0005D10000861100008651000086910000844
:1000D0006D100008711000087510000879100008F4
:1000E0007D100008811000088510000889100008A4
:1000F0008D10000891100008951000089910000854
:100100009D100008A1100008A5100008A910000803
:10011000AD100008B1100008B5100008B9100008B3
:10012000BD100008C1100008C5100008C910000863
:100130002DE9F843040016D02078DFF85864C10791
:1001400013D5706800F00C00042807D0706800F028
:100150000C00082840D17068C1033DD53068810388
:1001600003D56068002800F0F4802078DFF834744C
:10017000810719D5706810F00C0F07D0706800F077
:100180000C00082860D17068C1035DD43068810715
:1001900003D52069012840F0DC803168606921F0D6
:1001A000F80141EAC00131602178080770D5A069E3
:1001B000DFF8F413002865D001220A6000F00AFA83
:1001C0000546706A810700F1C68000F003FA401B03
:1001D0000228F6D9032035E16068B0F5803F04D1EC
:1001E000306840F48030306014E008B930680AE0CC
:1001F000B0F5A02F306806D140F48020306031681F
:1002000041F4803105E020F480303060316821F421
:1002100080213160606858B100F0DCF90546306833
:100220008103A2D400F0D6F9401B6528F7D3D1E7AB
:1002300000F0D0F905463068810396D500F0CAF980
:10024000401B6528F7D3C5E7206970B101213960EB
:1002500000F0C0F905463068810700F1B68000F073
:10026000B9F9401B0228F6D9B4E7386000F0B2F9BA
:1002700005463168880797D500F0ACF9401B022885
:10028000F7D9A7E7086000F0A5F90546706A81076D
:1002900070D500F09FF9401B0228F7D99AE708B9FA
:1002A000306A09E00528306A06D140F00400306267
:1002B000306A40F0010005E0400840003062306ADA
:1002C00020F00400306241F28938E06868B100F043
:1002D00081F98146306A810700F1848000F07AF963
:1002E000A0EB09004045F5D374E700F073F98146AF
:1002F000306A810776D500F06DF9A0EB0900404522
:10030000F6D367E700F066F9401B02287BD961E766
:1003100000F060F9001B022840F28F805AE700F0DD
:1003200093F804463068810140F18B8000F052F967
:10033000001B0228F6D94DE701280AD07068226A0E
:1003400000F48031914202BF00F47010616A88426B
:1003500077D0012076E0DFF840020168C9084FF449
:100360007A72B1FBF2F2009200BF0098411E0028A1
:100370000091F9D12078410739D5F0690025C100F5
:1003800009D4F06940F08050F0610125F06900F077
:10039000805000900098DFF81482D8F80000C10562
:1003A0001BD4D8F8000040F48070C8F8000000F0BA
:1003B00011F98146D8F80000C1050ED400F00AF901
:1003C000A0EB09006528F5D304E73068616920F0E7
:1003D000F80040EAC1003060E6E6E06801287FF4FA
:1003E0005EAF65E71DB1F06920F08050F061E06913
:1003F00038B3716801F00C0108299DD002288ED114
:1004000000F022F80546306881013FF57BAF206A95
:10041000B0F5803F05D17168A06821F40031014337
:1004200071607268206A616A22F4741202430A439E
:100430007260012000F009F80446306881017FF500
:1004400067AF0020BDE8F2830020386600F0C2B834
:100450002DE9F0410400884672D0554E00F077F83F
:1004600002D200F06FF86BD120684A4D810712D597
:10047000400703D5696841F4E061696020780107AD
:1004800003D5686840F4605068606968A06821F02E
:10049000F001014369602178C80749D560680128E7
:1004A00002D129688A0303E00228296802D18A015F
:1004B00002D445E08A0743D56968890840EA81008B
:1004C000686000F087F807466868616800F00C0013
:1004D000B0EB810F2CD000F07DF8C01B41F28931C8
:1004E0008842F1D3032021E02078410705D56A68CE
:1004F000E06822F4E06202436A602178080706D5CA
:100500006968206921F4605141EAC001696000F026
:1005100023F86A682749204BC2F30312895CC8405C
:1005200018601F48006800F05BF80020BDE8F0810B
:10053000306800F007008045D6D200F003F8D3D031
:100540000120F3E73168C90848EAC1013160306829
:1005500000F0070040457047174910480A6802F04C
:100560000C03082B00D0704710B500BF14A4C2F3D1
:100570008343D203E35C08D50968584314A3C1F34D
:1005800040415A5CB0FBF2F010BD18460B4948439D
:1005900010BD0000001002401000002000127A0080
:1005A0000C000020000042428004424200700040E3
:1005B000002002409C0F00080410024000093D008A
:1005C00002030405060708090A0B0C0D0E0F101094
:1005D0000102000001484068704700BF040000208D
:1005E00038B50D4D0D4B2A7804464FF47A711868D2
:1005F000B1FBF2F2B0FBF2F000F049F850B9102C68
:1006000008D2002221464FF0FF3000F023F8AC6002
:10061000002032BD012032BD040000201000002067
:100620000901020002D4244881547047234B02F090
:100630000F021A4402F8041C7047214B19684FF648
:10064000FF020002114000F4E06008431D49084326
:100650001860704738B51A4B1C68C4F30223C3F105
:100660000704052C28BF04241D1D072D34BF0023BB
:10067000DB1E012505FA04F4641E2140994005FAA9
:1006800003F35B1E1A401143BDE83440C8E710B5C0
:10069000401EB0F1807F01D3012010BD0A4C606084
:1006A0000F214FF0FF30FFF7BBFF0021A1600720B3
:1006B0002060002010BD000000E400E018ED00E024
:1006C0000CED00E00000FA0510E000E0624801686F
:1006D000491E042900D9704780B5DFE801F0030DF9
:1006E00017212E0000F08BFA86A000F059FA00F0D6
:1006F00027F800BF86A01CE000F081FA87A000F078
:100700004FFA00F01DF800BF87A012E000F077FA62
:1007100088A000F045FA00F013F800BF88A008E0B8
:1007200000F06DFA89A000F03BFA00F009F800BF74
:1007300089A0BDE8024000F033BA0121016001BD8B
:100740000121002000F040BA43480168491E0329F6
:1007500007D8DFE801F002030405B1E0B6E0C3E02A
:10076000C8E0704730B585B000F054FA00F081F869
:100770006846102100F060FA3848394C0168364D5F
:1007800041F010010160026802F010020492049925
:10079000026842F008020260036803F00803049351
:1007A0000499026842F0040202600022006800F02E
:1007B00004000490FF210498204600F011FBFF2163
:1007C00000910122019200210291022203926946C6
:1007D000204600F035FA4FF4C050002100900191FE
:1007E000029169461F4C204600F02AFA00F0CBF92E
:1007F00000F005FA5BA000F0D3F940F6B83000F045
:1008000011FB00F0FCF9FFF761FF00F02DF8012863
:100810000ED12868401C052808BF01202860FFF77A
:1008200055FF642000F0FEFA00F01EF80028FBD10E
:100830004FF4805100F01AF80128E6D1FFF784FF49
:10084000FFF744FF642000F0EDFA4FF4805100F010
:100850000DF80028F9D1D8E7000000201810024058
:1008600000100140000C01404FF40061204600F0F0
:10087000B1BA18B58FB005A8282100F0DDF9684697
:10088000142100F0D9F9012109911022002102243C
:100890000A920C91059405A8FFF74AFC08B100F0F4
:1008A0002FF80F20009000210191029103910491F3
:1008B0006846FFF7CDFD08B100F022F810B010BD7A
:1008C00080B500F09CF900BF29A004E080B500F0DD
:1008D00096F900BF2AA000F063F9BDE8024040F29B
:1008E000DC5000F09FBA000080B500F088F900BF2E
:1008F00027A0F0E780B500F082F900BF28A0EAE762
:1009000072B6FEE73E4D656E754974656D31000047
:10091000204D656E754974656D320000204D656E21
:10092000754974656D3100003E4D656E754974659D
:100930006D3200003E4D656E754974656D33000083
:10094000204D656E754974656D340000204D656EEF
:10095000754974656D3300003E4D656E754974656B
:100960006D34000020206D656E7520746573740011
:100970003E457865637574696E6720233100000019
:100980003E457865637574696E6720233200000008
:100990003E457865637574696E67202333000000F7
:1009A0003E457865637574696E67202334000000E6
:1009B0002DE9F84F00F000F90022012100F0E0F8E5
:1009C0000022022100F0DCF80122042100F0D8F816
:1009D00000F0D4F80022102100F0D2F800222021EB
:1009E00000F0CEF80022402100F0CAF800F0B8F87C
:1009F00002D5012200F0C3F8202D03D101221021DD
:100A000000F0BEF8402E03D10122202100F0B8F8FA
:100A1000802F03D10122402100F0B2F800220421EE
:100A200000F0AEF80122042100F0AAF800F0A6F8C8
:100A30000022102100F0A4F80022202100F0A0F8EC
:100A40000022402100F09CF8E00702D5012200F0CE
:100A500096F8B8F1020F03D10122102100F090F8AE
:100A6000B9F1040F03D10122202100F089F8BAF175
:100A7000080F03D10122402100F082F869E02DE93E
:100A8000F84F00F099F80122012100F079F80022D6
:100A9000022100F075F80122042100F071F800F045
:100AA0006DF80022102100F06BF80022202100F0E8
:100AB00067F80022402100F063F800F051F802D5F9
:100AC000012200F05CF8202D03D10122102100F05A
:100AD00057F8402E03D10122202100F051F8802F39
:100AE00003D10122402100F04BF80022042100F044
:100AF00047F80122042100F043F800F03FF80022FB
:100B0000102100F03DF80022202100F039F80022E9
:100B1000402100F035F8E00702D5012200F02FF85F
:100B2000B8F1020F03D10122102100F029F8B9F128
:100B3000040F03D10122202100F022F8BAF1080F9E
:100B400003D10122402100F01BF80022042100F013
:100B500017F85846BDE8F84F0022042100F040B9CC
:100B6000E00604F0200504F0400604F0800704F0DD
:100B7000020804F0040904F0080A70470022082162
:100B8000584600F02DB980B500F019F82820FFF77D
:100B90000FFF0620FFF70CFFBDE802400C2007E71F
:100BA00010B500F00BF803E014F8010BFFF767FF36
:100BB00020780028F8D110BDDFF808B004460120E5
:100BC00000F030B90010014038B504460D46FFF77B
:100BD000F6FF032D12D8DFE805F00205080BA4F19B
:100BE000800007E0A4F1400004E0A4F16C0001E003
:100BF000A4F12C00BDE83240C0B2D9E631BD80B5C9
:100C0000FFF7DDFF0120FFF7D3FEBDE80240022021
:100C1000CEE6000080B50748016841F01001016090
:100C20000320FFF70AFD0020FFF7DAFC00F00EF9C1
:100C3000002002BD00200240002200F029B900007F
:100C40002DE9F8470027BE46674A684B4FF00F086A
:100C500082460BE0D6683040D06006E094604C6875
:100C6000A402F7D5D0680643D6607F1C0E6836FA1A
:100C700007F000F0AD80012000FA07F52E40AE42EB
:100C8000F3D1486858B301281AD002281FD003288E
:100C900033D0112817D012281DD0554CA0421CBFAC
:100CA000544CA0421BD0544CA0421CBF534CA042F9
:100CB00015D0534CA0421CBF524CA0420FD01EE096
:100CC000D1F80CE01BE0C86800F1040E17E0C8681A
:100CD00000F1080E13E0C86800F10C0E0FE0886800
:100CE00010B94FF0040E0AE001284FF0080E14BFAF
:100CF000CAF81450CAF8105001E04FF0000EB6F5D3
:100D0000807F03D250464FEA870C05E0A7F1080424
:100D10000AF104004FEA840C046808FA0CF5AC43AD
:100D20000EFA0CF52C4304604868C0009DD5186885
:100D3000DFF8D4C040F0010018601C6804F0010422
:100D40000094BC000098B8085CF8205004F00C0433
:100D500008FA04F925EA09092C4DAA4508BF00251F
:100D600018D02B4DAA4508BF012513D0294DAA45FF
:100D700008BF02250ED0284DAA4508BF032509D07B
:100D8000264DAA4508BF042504D0254DAA450CBF11
:100D90000525062505FA04F444EA09044CF8204028
:100DA000F0434C68E40314684CBF344304401460BF
:100DB0004C68A40354684CBF3443044054604C68EE
:100DC0009568E4024CBF46EA050400EA050445E7DD
:100DD000BDE8F1878068084018BF0120C0B27047A5
:100DE00002B9090401617047000401401810024073
:100DF000000011100000121000002110000022104D
:100E000000003110000032100800014000080140CD
:100E1000000C014000100140001401400018014086
:100E2000001C014038B50446FFF7D4FB14F1010F54
:100E3000054602D0044908780419FFF7CBFB401B94
:100E4000A042FAD331BD00BF040000200E4881B09B
:100E5000016841F001010160026802F001020092A4
:100E60000099426842F080524260406800F0805031
:100E7000009000980548016821F0E06141F00071A0
:100E8000016001B0704700BF18100240040001402B
:100E900000B500BF130096469446103928BFA0E85D
:100EA0000C50FAD85FEA417C28BF0CC048BF40F81C
:100EB000042BC90728BF20F8022B48BF00F8012BDC
:100EC00000BD30B450F8041B79B102684368024495
:100ED0000830DC0744BFA9F10104E31852F8045BB1
:100EE00043F8045B091FF9D1ECE730BC7047000000
:100EF00010B5074979441831064C7C44163404E097
:100F00000A68081D114488470146A142F8D110BD66
:100F10000800000018000000ABFFFFFF14000000F5
:100F20008C000000000000200000000000F00DF820
:100F3000002801D0FFF7DCFFAFF300800020AFF303
:100F40000080FFF70FFC00F002F80120704700F06E
:100F500001B800000746384600F002F8FBE7000041
:100F600080B5AFF30080024A11001820ABBEFBE74A
:100F700026000200FEE7FEE7FEE7FEE7FEE7704719
:100F80007047704700F000B802494A680878821834
:100F90004A60704704000020704700000000000015
:100FA0000000000001020304060708090100000018
:100FB0000100000000000000100000000024F40008
:100FC0000148804701480047990F0008D10F0008E9
:100FD000AFF30080AFF30080FFF7A8FFFFF7FEBF7D
:100FE000FFF7FEBFFFF7FEBFFFF7FEBFFFF7FEBF35
:100FF000FFF7FEBFFFF7FEBFFFF7FEBFFFF7FEBF25
:10100000FFF7FEBFFFF7FEBFFFF7FEBFFFF7FEBF14
:10101000FFF7FEBFFFF7FEBFFFF7FEBFFFF7FEBF04
:10102000FFF7FEBFFFF7FEBFFFF7FEBFFFF7FEBFF4
:10103000FFF7FEBFFFF7FEBFFFF7FEBFFFF7FEBFE4
:10104000FFF7FEBFFFF7FEBFFFF7FEBFFFF7FEBFD4
:10105000FFF7FEBFFFF7FEBFFFF7FEBFFFF7FEBFC4
:10106000FFF7FEBFFFF7FEBFFFF7FEBFFFF7FEBFB4
:10107000FFF7FEBFFFF7FEBFFFF7FEBFFFF7FEBFA4
:10108000FFF7FEBFFFF7FEBFFFF7FEBFFFF7FEBF94
:10109000FFF7FEBFFFF7FEBFFFF7FEBFFFF7FEBF84
:1010A000FFF7FEBFFFF7FEBFFFF7FEBFFFF7FEBF74
:1010B000FFF7FEBFFFF7FEBFFFF7FEBFFFF7FEBF64
:0C10C000FFF7FEBFFFF7FEBFFFF7FEBF0B
:0400000508000FD10F
:00000001FF
